{
  "_format": "hh-sol-artifact-1",
  "contractName": "CoinPortal",
  "sourceName": "contracts/CoinPortal.sol",
  "abi": [
    {
      "inputs": [],
      "stateMutability": "nonpayable",
      "type": "constructor"
    },
    {
      "anonymous": false,
      "inputs": [
        {
          "indexed": true,
          "internalType": "address",
          "name": "from",
          "type": "address"
        },
        {
          "indexed": false,
          "internalType": "uint256",
          "name": "timestamp",
          "type": "uint256"
        },
        {
          "indexed": false,
          "internalType": "string",
          "name": "message",
          "type": "string"
        }
      ],
      "name": "NewCoin",
      "type": "event"
    },
    {
      "inputs": [],
      "name": "getAllCoins",
      "outputs": [
        {
          "components": [
            {
              "internalType": "address",
              "name": "sender",
              "type": "address"
            },
            {
              "internalType": "string",
              "name": "message",
              "type": "string"
            },
            {
              "internalType": "uint256",
              "name": "timestamp",
              "type": "uint256"
            }
          ],
          "internalType": "struct CoinPortal.Coin[]",
          "name": "",
          "type": "tuple[]"
        }
      ],
      "stateMutability": "view",
      "type": "function"
    },
    {
      "inputs": [],
      "name": "getTotalCoins",
      "outputs": [
        {
          "internalType": "uint256",
          "name": "",
          "type": "uint256"
        }
      ],
      "stateMutability": "view",
      "type": "function"
    },
    {
      "inputs": [
        {
          "internalType": "string",
          "name": "_message",
          "type": "string"
        }
      ],
      "name": "sendCoin",
      "outputs": [],
      "stateMutability": "nonpayable",
      "type": "function"
    }
  ],
  "bytecode": "0x60806040523480156200001157600080fd5b506200005d6040518060400160405280601681526020017f48656c6c6f2c20536d61727420436f6e747261637421000000000000000000008152506200006360201b620003aa1760201c565b620001ed565b62000103816040516024016200007a9190620001c9565b6040516020818303038152906040527f41304fac000000000000000000000000000000000000000000000000000000007bffffffffffffffffffffffffffffffffffffffffffffffffffffffff19166020820180517bffffffffffffffffffffffffffffffffffffffffffffffffffffffff83818316178352505050506200010660201b60201c565b50565b60008151905060006a636f6e736f6c652e6c6f679050602083016000808483855afa5050505050565b600081519050919050565b600082825260208201905092915050565b60005b838110156200016b5780820151818401526020810190506200014e565b60008484015250505050565b6000601f19601f8301169050919050565b600062000195826200012f565b620001a181856200013a565b9350620001b38185602086016200014b565b620001be8162000177565b840191505092915050565b60006020820190508181036000830152620001e5818462000188565b905092915050565b610e0080620001fd6000396000f3fe608060405234801561001057600080fd5b50600436106100415760003560e01c8063289fc9d214610046578063a4ec062014610064578063c7b2dc8814610082575b600080fd5b61004e61009e565b60405161005b91906105bd565b60405180910390f35b61006c6100e9565b60405161007991906107ca565b60405180910390f35b61009c60048036038101906100979190610935565b61023a565b005b60006100e16040518060400160405280601781526020017f5765206861766520256420746f74616c20636f696e7321000000000000000000815250600054610443565b600054905090565b60606001805480602002602001604051908101604052809291908181526020016000905b8282101561023157838290600052602060002090600302016040518060600160405290816000820160009054906101000a900473ffffffffffffffffffffffffffffffffffffffff1673ffffffffffffffffffffffffffffffffffffffff1673ffffffffffffffffffffffffffffffffffffffff168152602001600182018054610196906109ad565b80601f01602080910402602001604051908101604052809291908181526020018280546101c2906109ad565b801561020f5780601f106101e45761010080835404028352916020019161020f565b820191906000526020600020905b8154815290600101906020018083116101f257829003601f168201915b505050505081526020016002820154815250508152602001906001019061010d565b50505050905090565b600160008082825461024c9190610a0d565b925050819055506102926040518060400160405280600f81526020017f25732073656e74206120636f696e210000000000000000000000000000000000815250336104df565b600160405180606001604052803373ffffffffffffffffffffffffffffffffffffffff16815260200183815260200142815250908060018154018082558091505060019003906000526020600020906003020160009091909190915060008201518160000160006101000a81548173ffffffffffffffffffffffffffffffffffffffff021916908373ffffffffffffffffffffffffffffffffffffffff160217905550602082015181600101908161034a9190610bed565b506040820151816002015550503373ffffffffffffffffffffffffffffffffffffffff167f37dd3bb872c475f09a147780213fe077ae7337781512ed24e17e4c152c47b005428360405161039f929190610d09565b60405180910390a250565b610440816040516024016103be9190610d39565b6040516020818303038152906040527f41304fac000000000000000000000000000000000000000000000000000000007bffffffffffffffffffffffffffffffffffffffffffffffffffffffff19166020820180517bffffffffffffffffffffffffffffffffffffffffffffffffffffffff838183161783525050505061057b565b50565b6104db8282604051602401610459929190610d5b565b6040516020818303038152906040527fb60e72cc000000000000000000000000000000000000000000000000000000007bffffffffffffffffffffffffffffffffffffffffffffffffffffffff19166020820180517bffffffffffffffffffffffffffffffffffffffffffffffffffffffff838183161783525050505061057b565b5050565b61057782826040516024016104f5929190610d9a565b6040516020818303038152906040527f319af333000000000000000000000000000000000000000000000000000000007bffffffffffffffffffffffffffffffffffffffffffffffffffffffff19166020820180517bffffffffffffffffffffffffffffffffffffffffffffffffffffffff838183161783525050505061057b565b5050565b60008151905060006a636f6e736f6c652e6c6f679050602083016000808483855afa5050505050565b6000819050919050565b6105b7816105a4565b82525050565b60006020820190506105d260008301846105ae565b92915050565b600081519050919050565b600082825260208201905092915050565b6000819050602082019050919050565b600073ffffffffffffffffffffffffffffffffffffffff82169050919050565b600061062f82610604565b9050919050565b61063f81610624565b82525050565b600081519050919050565b600082825260208201905092915050565b60005b8381101561067f578082015181840152602081019050610664565b60008484015250505050565b6000601f19601f8301169050919050565b60006106a782610645565b6106b18185610650565b93506106c1818560208601610661565b6106ca8161068b565b840191505092915050565b6106de816105a4565b82525050565b60006060830160008301516106fc6000860182610636565b5060208301518482036020860152610714828261069c565b915050604083015161072960408601826106d5565b508091505092915050565b600061074083836106e4565b905092915050565b6000602082019050919050565b6000610760826105d8565b61076a81856105e3565b93508360208202850161077c856105f4565b8060005b858110156107b857848403895281516107998582610734565b94506107a483610748565b925060208a01995050600181019050610780565b50829750879550505050505092915050565b600060208201905081810360008301526107e48184610755565b905092915050565b6000604051905090565b600080fd5b600080fd5b600080fd5b600080fd5b7f4e487b7100000000000000000000000000000000000000000000000000000000600052604160045260246000fd5b6108428261068b565b810181811067ffffffffffffffff821117156108615761086061080a565b5b80604052505050565b60006108746107ec565b90506108808282610839565b919050565b600067ffffffffffffffff8211156108a05761089f61080a565b5b6108a98261068b565b9050602081019050919050565b82818337600083830152505050565b60006108d86108d384610885565b61086a565b9050828152602081018484840111156108f4576108f3610805565b5b6108ff8482856108b6565b509392505050565b600082601f83011261091c5761091b610800565b5b813561092c8482602086016108c5565b91505092915050565b60006020828403121561094b5761094a6107f6565b5b600082013567ffffffffffffffff811115610969576109686107fb565b5b61097584828501610907565b91505092915050565b7f4e487b7100000000000000000000000000000000000000000000000000000000600052602260045260246000fd5b600060028204905060018216806109c557607f821691505b6020821081036109d8576109d761097e565b5b50919050565b7f4e487b7100000000000000000000000000000000000000000000000000000000600052601160045260246000fd5b6000610a18826105a4565b9150610a23836105a4565b9250828201905080821115610a3b57610a3a6109de565b5b92915050565b60008190508160005260206000209050919050565b60006020601f8301049050919050565b600082821b905092915050565b600060088302610aa37fffffffffffffffffffffffffffffffffffffffffffffffffffffffffffffffff82610a66565b610aad8683610a66565b95508019841693508086168417925050509392505050565b6000819050919050565b6000610aea610ae5610ae0846105a4565b610ac5565b6105a4565b9050919050565b6000819050919050565b610b0483610acf565b610b18610b1082610af1565b848454610a73565b825550505050565b600090565b610b2d610b20565b610b38818484610afb565b505050565b5b81811015610b5c57610b51600082610b25565b600181019050610b3e565b5050565b601f821115610ba157610b7281610a41565b610b7b84610a56565b81016020851015610b8a578190505b610b9e610b9685610a56565b830182610b3d565b50505b505050565b600082821c905092915050565b6000610bc460001984600802610ba6565b1980831691505092915050565b6000610bdd8383610bb3565b9150826002028217905092915050565b610bf682610645565b67ffffffffffffffff811115610c0f57610c0e61080a565b5b610c1982546109ad565b610c24828285610b60565b600060209050601f831160018114610c575760008415610c45578287015190505b610c4f8582610bd1565b865550610cb7565b601f198416610c6586610a41565b60005b82811015610c8d57848901518255600182019150602085019450602081019050610c68565b86831015610caa5784890151610ca6601f891682610bb3565b8355505b6001600288020188555050505b505050505050565b600082825260208201905092915050565b6000610cdb82610645565b610ce58185610cbf565b9350610cf5818560208601610661565b610cfe8161068b565b840191505092915050565b6000604082019050610d1e60008301856105ae565b8181036020830152610d308184610cd0565b90509392505050565b60006020820190508181036000830152610d538184610cd0565b905092915050565b60006040820190508181036000830152610d758185610cd0565b9050610d8460208301846105ae565b9392505050565b610d9481610624565b82525050565b60006040820190508181036000830152610db48185610cd0565b9050610dc36020830184610d8b565b939250505056fea2646970667358221220e182e4c8bc48d0b17e695b00a11adb1d50679d2f2b57eb2bd1d5a60fbc1e047864736f6c63430008110033",
  "linkReferences": {},
  "deployedLinkReferences": {}
}