{
  "_format": "hh-sol-artifact-1",
  "contractName": "CoinPortal",
  "sourceName": "contracts/CoinPortal.sol",
  "abi": [
    {
      "inputs": [],
      "stateMutability": "payable",
      "type": "constructor"
    },
    {
      "anonymous": false,
      "inputs": [
        {
          "indexed": true,
          "internalType": "address",
          "name": "from",
          "type": "address"
        },
        {
          "indexed": false,
          "internalType": "uint256",
          "name": "timestamp",
          "type": "uint256"
        },
        {
          "indexed": false,
          "internalType": "string",
          "name": "message",
          "type": "string"
        }
      ],
      "name": "NewCoin",
      "type": "event"
    },
    {
      "inputs": [],
      "name": "getAllCoins",
      "outputs": [
        {
          "components": [
            {
              "internalType": "address",
              "name": "sender",
              "type": "address"
            },
            {
              "internalType": "string",
              "name": "message",
              "type": "string"
            },
            {
              "internalType": "uint256",
              "name": "timestamp",
              "type": "uint256"
            }
          ],
          "internalType": "struct CoinPortal.Coin[]",
          "name": "",
          "type": "tuple[]"
        }
      ],
      "stateMutability": "view",
      "type": "function"
    },
    {
      "inputs": [],
      "name": "getTotalCoins",
      "outputs": [
        {
          "internalType": "uint256",
          "name": "",
          "type": "uint256"
        }
      ],
      "stateMutability": "view",
      "type": "function"
    },
    {
      "inputs": [
        {
          "internalType": "string",
          "name": "_message",
          "type": "string"
        }
      ],
      "name": "sendCoin",
      "outputs": [],
      "stateMutability": "nonpayable",
      "type": "function"
    }
  ],
  "bytecode": "0x60806040526200004f6040518060400160405280601681526020017f48656c6c6f2c20536d61727420436f6e747261637421000000000000000000008152506200005560201b620004a61760201c565b620001df565b620000f5816040516024016200006c9190620001bb565b6040516020818303038152906040527f41304fac000000000000000000000000000000000000000000000000000000007bffffffffffffffffffffffffffffffffffffffffffffffffffffffff19166020820180517bffffffffffffffffffffffffffffffffffffffffffffffffffffffff8381831617835250505050620000f860201b60201c565b50565b60008151905060006a636f6e736f6c652e6c6f679050602083016000808483855afa5050505050565b600081519050919050565b600082825260208201905092915050565b60005b838110156200015d57808201518184015260208101905062000140565b60008484015250505050565b6000601f19601f8301169050919050565b6000620001878262000121565b6200019381856200012c565b9350620001a58185602086016200013d565b620001b08162000169565b840191505092915050565b60006020820190508181036000830152620001d781846200017a565b905092915050565b61106680620001ef6000396000f3fe608060405234801561001057600080fd5b50600436106100415760003560e01c8063289fc9d214610046578063a4ec062014610064578063c7b2dc8814610082575b600080fd5b61004e61009e565b60405161005b91906106b9565b60405180910390f35b61006c6100e9565b60405161007991906108c6565b60405180910390f35b61009c60048036038101906100979190610a31565b61023a565b005b60006100e16040518060400160405280601781526020017f5765206861766520256420746f74616c20636f696e732100000000000000000081525060005461053f565b600054905090565b60606001805480602002602001604051908101604052809291908181526020016000905b8282101561023157838290600052602060002090600302016040518060600160405290816000820160009054906101000a900473ffffffffffffffffffffffffffffffffffffffff1673ffffffffffffffffffffffffffffffffffffffff1673ffffffffffffffffffffffffffffffffffffffff16815260200160018201805461019690610aa9565b80601f01602080910402602001604051908101604052809291908181526020018280546101c290610aa9565b801561020f5780601f106101e45761010080835404028352916020019161020f565b820191906000526020600020905b8154815290600101906020018083116101f257829003601f168201915b505050505081526020016002820154815250508152602001906001019061010d565b50505050905090565b600160008082825461024c9190610b09565b925050819055506102926040518060400160405280600f81526020017f25732073656e74206120636f696e210000000000000000000000000000000000815250336105db565b600160405180606001604052803373ffffffffffffffffffffffffffffffffffffffff16815260200183815260200142815250908060018154018082558091505060019003906000526020600020906003020160009091909190915060008201518160000160006101000a81548173ffffffffffffffffffffffffffffffffffffffff021916908373ffffffffffffffffffffffffffffffffffffffff160217905550602082015181600101908161034a9190610ce9565b506040820151816002015550503373ffffffffffffffffffffffffffffffffffffffff167f37dd3bb872c475f09a147780213fe077ae7337781512ed24e17e4c152c47b005428360405161039f929190610e05565b60405180910390a26000655af3107a40009050478111156103f5576040517f08c379a00000000000000000000000000000000000000000000000000000000081526004016103ec90610ea7565b60405180910390fd5b60003373ffffffffffffffffffffffffffffffffffffffff168260405161041b90610ef8565b60006040518083038185875af1925050503d8060008114610458576040519150601f19603f3d011682016040523d82523d6000602084013e61045d565b606091505b50509050806104a1576040517f08c379a000000000000000000000000000000000000000000000000000000000815260040161049890610f7f565b60405180910390fd5b505050565b61053c816040516024016104ba9190610f9f565b6040516020818303038152906040527f41304fac000000000000000000000000000000000000000000000000000000007bffffffffffffffffffffffffffffffffffffffffffffffffffffffff19166020820180517bffffffffffffffffffffffffffffffffffffffffffffffffffffffff8381831617835250505050610677565b50565b6105d78282604051602401610555929190610fc1565b6040516020818303038152906040527fb60e72cc000000000000000000000000000000000000000000000000000000007bffffffffffffffffffffffffffffffffffffffffffffffffffffffff19166020820180517bffffffffffffffffffffffffffffffffffffffffffffffffffffffff8381831617835250505050610677565b5050565b61067382826040516024016105f1929190611000565b6040516020818303038152906040527f319af333000000000000000000000000000000000000000000000000000000007bffffffffffffffffffffffffffffffffffffffffffffffffffffffff19166020820180517bffffffffffffffffffffffffffffffffffffffffffffffffffffffff8381831617835250505050610677565b5050565b60008151905060006a636f6e736f6c652e6c6f679050602083016000808483855afa5050505050565b6000819050919050565b6106b3816106a0565b82525050565b60006020820190506106ce60008301846106aa565b92915050565b600081519050919050565b600082825260208201905092915050565b6000819050602082019050919050565b600073ffffffffffffffffffffffffffffffffffffffff82169050919050565b600061072b82610700565b9050919050565b61073b81610720565b82525050565b600081519050919050565b600082825260208201905092915050565b60005b8381101561077b578082015181840152602081019050610760565b60008484015250505050565b6000601f19601f8301169050919050565b60006107a382610741565b6107ad818561074c565b93506107bd81856020860161075d565b6107c681610787565b840191505092915050565b6107da816106a0565b82525050565b60006060830160008301516107f86000860182610732565b50602083015184820360208601526108108282610798565b915050604083015161082560408601826107d1565b508091505092915050565b600061083c83836107e0565b905092915050565b6000602082019050919050565b600061085c826106d4565b61086681856106df565b935083602082028501610878856106f0565b8060005b858110156108b457848403895281516108958582610830565b94506108a083610844565b925060208a0199505060018101905061087c565b50829750879550505050505092915050565b600060208201905081810360008301526108e08184610851565b905092915050565b6000604051905090565b600080fd5b600080fd5b600080fd5b600080fd5b7f4e487b7100000000000000000000000000000000000000000000000000000000600052604160045260246000fd5b61093e82610787565b810181811067ffffffffffffffff8211171561095d5761095c610906565b5b80604052505050565b60006109706108e8565b905061097c8282610935565b919050565b600067ffffffffffffffff82111561099c5761099b610906565b5b6109a582610787565b9050602081019050919050565b82818337600083830152505050565b60006109d46109cf84610981565b610966565b9050828152602081018484840111156109f0576109ef610901565b5b6109fb8482856109b2565b509392505050565b600082601f830112610a1857610a176108fc565b5b8135610a288482602086016109c1565b91505092915050565b600060208284031215610a4757610a466108f2565b5b600082013567ffffffffffffffff811115610a6557610a646108f7565b5b610a7184828501610a03565b91505092915050565b7f4e487b7100000000000000000000000000000000000000000000000000000000600052602260045260246000fd5b60006002820490506001821680610ac157607f821691505b602082108103610ad457610ad3610a7a565b5b50919050565b7f4e487b7100000000000000000000000000000000000000000000000000000000600052601160045260246000fd5b6000610b14826106a0565b9150610b1f836106a0565b9250828201905080821115610b3757610b36610ada565b5b92915050565b60008190508160005260206000209050919050565b60006020601f8301049050919050565b600082821b905092915050565b600060088302610b9f7fffffffffffffffffffffffffffffffffffffffffffffffffffffffffffffffff82610b62565b610ba98683610b62565b95508019841693508086168417925050509392505050565b6000819050919050565b6000610be6610be1610bdc846106a0565b610bc1565b6106a0565b9050919050565b6000819050919050565b610c0083610bcb565b610c14610c0c82610bed565b848454610b6f565b825550505050565b600090565b610c29610c1c565b610c34818484610bf7565b505050565b5b81811015610c5857610c4d600082610c21565b600181019050610c3a565b5050565b601f821115610c9d57610c6e81610b3d565b610c7784610b52565b81016020851015610c86578190505b610c9a610c9285610b52565b830182610c39565b50505b505050565b600082821c905092915050565b6000610cc060001984600802610ca2565b1980831691505092915050565b6000610cd98383610caf565b9150826002028217905092915050565b610cf282610741565b67ffffffffffffffff811115610d0b57610d0a610906565b5b610d158254610aa9565b610d20828285610c5c565b600060209050601f831160018114610d535760008415610d41578287015190505b610d4b8582610ccd565b865550610db3565b601f198416610d6186610b3d565b60005b82811015610d8957848901518255600182019150602085019450602081019050610d64565b86831015610da65784890151610da2601f891682610caf565b8355505b6001600288020188555050505b505050505050565b600082825260208201905092915050565b6000610dd782610741565b610de18185610dbb565b9350610df181856020860161075d565b610dfa81610787565b840191505092915050565b6000604082019050610e1a60008301856106aa565b8181036020830152610e2c8184610dcc565b90509392505050565b7f547279696e6720746f207769746864726177206d6f7265206d6f6e657920746860008201527f616e2074686520636f6e7472616374206861732e000000000000000000000000602082015250565b6000610e91603483610dbb565b9150610e9c82610e35565b604082019050919050565b60006020820190508181036000830152610ec081610e84565b9050919050565b600081905092915050565b50565b6000610ee2600083610ec7565b9150610eed82610ed2565b600082019050919050565b6000610f0382610ed5565b9150819050919050565b7f4661696c656420746f207769746864726177206d6f6e65792066726f6d20636f60008201527f6e74726163742e00000000000000000000000000000000000000000000000000602082015250565b6000610f69602783610dbb565b9150610f7482610f0d565b604082019050919050565b60006020820190508181036000830152610f9881610f5c565b9050919050565b60006020820190508181036000830152610fb98184610dcc565b905092915050565b60006040820190508181036000830152610fdb8185610dcc565b9050610fea60208301846106aa565b9392505050565b610ffa81610720565b82525050565b6000604082019050818103600083015261101a8185610dcc565b90506110296020830184610ff1565b939250505056fea2646970667358221220cb4d927045f2bbf5467d4b38b0286487a0645e90f0d609961ec4697e4619f93a64736f6c63430008110033",
  "linkReferences": {},
  "deployedLinkReferences": {}
}