{
  "_format": "hh-sol-artifact-1",
  "contractName": "CoinPortal",
  "sourceName": "contracts/CoinPortal.sol",
  "abi": [
    {
      "inputs": [],
      "stateMutability": "payable",
      "type": "constructor"
    },
    {
      "anonymous": false,
      "inputs": [
        {
          "indexed": true,
          "internalType": "address",
          "name": "from",
          "type": "address"
        },
        {
          "indexed": false,
          "internalType": "uint256",
          "name": "timestamp",
          "type": "uint256"
        },
        {
          "indexed": false,
          "internalType": "string",
          "name": "message",
          "type": "string"
        }
      ],
      "name": "NewCoin",
      "type": "event"
    },
    {
      "inputs": [],
      "name": "getAllCoins",
      "outputs": [
        {
          "components": [
            {
              "internalType": "address",
              "name": "sender",
              "type": "address"
            },
            {
              "internalType": "string",
              "name": "message",
              "type": "string"
            },
            {
              "internalType": "uint256",
              "name": "timestamp",
              "type": "uint256"
            }
          ],
          "internalType": "struct CoinPortal.Coin[]",
          "name": "",
          "type": "tuple[]"
        }
      ],
      "stateMutability": "view",
      "type": "function"
    },
    {
      "inputs": [],
      "name": "getTotalCoins",
      "outputs": [
        {
          "internalType": "uint256",
          "name": "",
          "type": "uint256"
        }
      ],
      "stateMutability": "view",
      "type": "function"
    },
    {
      "inputs": [
        {
          "internalType": "address",
          "name": "",
          "type": "address"
        }
      ],
      "name": "lastSentCoinAt",
      "outputs": [
        {
          "internalType": "uint256",
          "name": "",
          "type": "uint256"
        }
      ],
      "stateMutability": "view",
      "type": "function"
    },
    {
      "inputs": [
        {
          "internalType": "string",
          "name": "_message",
          "type": "string"
        }
      ],
      "name": "sendCoin",
      "outputs": [],
      "stateMutability": "nonpayable",
      "type": "function"
    }
  ],
  "bytecode": "0x60806040526200004f6040518060400160405280601681526020017f48656c6c6f2c20536d61727420436f6e747261637421000000000000000000008152506200007760201b620006811760201c565b606444426200005f91906200017c565b6200006b9190620001e6565b600181905550620002dc565b62000117816040516024016200008e9190620002b8565b6040516020818303038152906040527f41304fac000000000000000000000000000000000000000000000000000000007bffffffffffffffffffffffffffffffffffffffffffffffffffffffff19166020820180517bffffffffffffffffffffffffffffffffffffffffffffffffffffffff83818316178352505050506200011a60201b60201c565b50565b60008151905060006a636f6e736f6c652e6c6f679050602083016000808483855afa5050505050565b6000819050919050565b7f4e487b7100000000000000000000000000000000000000000000000000000000600052601160045260246000fd5b6000620001898262000143565b9150620001968362000143565b9250828201905080821115620001b157620001b06200014d565b5b92915050565b7f4e487b7100000000000000000000000000000000000000000000000000000000600052601260045260246000fd5b6000620001f38262000143565b9150620002008362000143565b925082620002135762000212620001b7565b5b828206905092915050565b600081519050919050565b600082825260208201905092915050565b60005b838110156200025a5780820151818401526020810190506200023d565b60008484015250505050565b6000601f19601f8301169050919050565b600062000284826200021e565b62000290818562000229565b9350620002a28185602086016200023a565b620002ad8162000266565b840191505092915050565b60006020820190508181036000830152620002d4818462000277565b905092915050565b61136680620002ec6000396000f3fe608060405234801561001057600080fd5b506004361061004c5760003560e01c8063289fc9d214610051578063a4ec06201461006f578063b7bcaee61461008d578063c7b2dc88146100bd575b600080fd5b6100596100d9565b6040516100669190610894565b60405180910390f35b610077610124565b6040516100849190610aa1565b60405180910390f35b6100a760048036038101906100a29190610b03565b610275565b6040516100b49190610894565b60405180910390f35b6100d760048036038101906100d29190610c65565b61028d565b005b600061011c6040518060400160405280601781526020017f5765206861766520256420746f74616c20636f696e732100000000000000000081525060005461071a565b600054905090565b60606002805480602002602001604051908101604052809291908181526020016000905b8282101561026c57838290600052602060002090600302016040518060600160405290816000820160009054906101000a900473ffffffffffffffffffffffffffffffffffffffff1673ffffffffffffffffffffffffffffffffffffffff1673ffffffffffffffffffffffffffffffffffffffff1681526020016001820180546101d190610cdd565b80601f01602080910402602001604051908101604052809291908181526020018280546101fd90610cdd565b801561024a5780601f1061021f5761010080835404028352916020019161024a565b820191906000526020600020905b81548152906001019060200180831161022d57829003601f168201915b5050505050815260200160028201548152505081526020019060010190610148565b50505050905090565b60036020528060005260406000206000915090505481565b42610384600360003373ffffffffffffffffffffffffffffffffffffffff1673ffffffffffffffffffffffffffffffffffffffff168152602001908152602001600020546102db9190610d3d565b1061031b576040517f08c379a000000000000000000000000000000000000000000000000000000000815260040161031290610dce565b60405180910390fd5b42600360003373ffffffffffffffffffffffffffffffffffffffff1673ffffffffffffffffffffffffffffffffffffffff1681526020019081526020016000208190555060016000808282546103719190610d3d565b925050819055506103b76040518060400160405280600f81526020017f25732073656e74206120636f696e210000000000000000000000000000000000815250336107b6565b600260405180606001604052803373ffffffffffffffffffffffffffffffffffffffff16815260200183815260200142815250908060018154018082558091505060019003906000526020600020906003020160009091909190915060008201518160000160006101000a81548173ffffffffffffffffffffffffffffffffffffffff021916908373ffffffffffffffffffffffffffffffffffffffff160217905550602082015181600101908161046f9190610f9a565b506040820151816002015550506064600154424461048d9190610d3d565b6104979190610d3d565b6104a1919061109b565b6001819055506104e86040518060400160405280601681526020017f52616e646f6d20232067656e6572617465643a2025640000000000000000000081525060015461071a565b60326001541161062e576105316040518060400160405280600781526020017f257320776f6e2100000000000000000000000000000000000000000000000000815250336107b6565b6000655af3107a400090504781111561057f576040517f08c379a00000000000000000000000000000000000000000000000000000000081526004016105769061113e565b60405180910390fd5b60003373ffffffffffffffffffffffffffffffffffffffff16826040516105a59061118f565b60006040518083038185875af1925050503d80600081146105e2576040519150601f19603f3d011682016040523d82523d6000602084013e6105e7565b606091505b505090508061062b576040517f08c379a000000000000000000000000000000000000000000000000000000000815260040161062290611216565b60405180910390fd5b50505b3373ffffffffffffffffffffffffffffffffffffffff167f37dd3bb872c475f09a147780213fe077ae7337781512ed24e17e4c152c47b005428360405161067692919061126f565b60405180910390a250565b61071781604051602401610695919061129f565b6040516020818303038152906040527f41304fac000000000000000000000000000000000000000000000000000000007bffffffffffffffffffffffffffffffffffffffffffffffffffffffff19166020820180517bffffffffffffffffffffffffffffffffffffffffffffffffffffffff8381831617835250505050610852565b50565b6107b282826040516024016107309291906112c1565b6040516020818303038152906040527fb60e72cc000000000000000000000000000000000000000000000000000000007bffffffffffffffffffffffffffffffffffffffffffffffffffffffff19166020820180517bffffffffffffffffffffffffffffffffffffffffffffffffffffffff8381831617835250505050610852565b5050565b61084e82826040516024016107cc929190611300565b6040516020818303038152906040527f319af333000000000000000000000000000000000000000000000000000000007bffffffffffffffffffffffffffffffffffffffffffffffffffffffff19166020820180517bffffffffffffffffffffffffffffffffffffffffffffffffffffffff8381831617835250505050610852565b5050565b60008151905060006a636f6e736f6c652e6c6f679050602083016000808483855afa5050505050565b6000819050919050565b61088e8161087b565b82525050565b60006020820190506108a96000830184610885565b92915050565b600081519050919050565b600082825260208201905092915050565b6000819050602082019050919050565b600073ffffffffffffffffffffffffffffffffffffffff82169050919050565b6000610906826108db565b9050919050565b610916816108fb565b82525050565b600081519050919050565b600082825260208201905092915050565b60005b8381101561095657808201518184015260208101905061093b565b60008484015250505050565b6000601f19601f8301169050919050565b600061097e8261091c565b6109888185610927565b9350610998818560208601610938565b6109a181610962565b840191505092915050565b6109b58161087b565b82525050565b60006060830160008301516109d3600086018261090d565b50602083015184820360208601526109eb8282610973565b9150506040830151610a0060408601826109ac565b508091505092915050565b6000610a1783836109bb565b905092915050565b6000602082019050919050565b6000610a37826108af565b610a4181856108ba565b935083602082028501610a53856108cb565b8060005b85811015610a8f5784840389528151610a708582610a0b565b9450610a7b83610a1f565b925060208a01995050600181019050610a57565b50829750879550505050505092915050565b60006020820190508181036000830152610abb8184610a2c565b905092915050565b6000604051905090565b600080fd5b600080fd5b610ae0816108fb565b8114610aeb57600080fd5b50565b600081359050610afd81610ad7565b92915050565b600060208284031215610b1957610b18610acd565b5b6000610b2784828501610aee565b91505092915050565b600080fd5b600080fd5b7f4e487b7100000000000000000000000000000000000000000000000000000000600052604160045260246000fd5b610b7282610962565b810181811067ffffffffffffffff82111715610b9157610b90610b3a565b5b80604052505050565b6000610ba4610ac3565b9050610bb08282610b69565b919050565b600067ffffffffffffffff821115610bd057610bcf610b3a565b5b610bd982610962565b9050602081019050919050565b82818337600083830152505050565b6000610c08610c0384610bb5565b610b9a565b905082815260208101848484011115610c2457610c23610b35565b5b610c2f848285610be6565b509392505050565b600082601f830112610c4c57610c4b610b30565b5b8135610c5c848260208601610bf5565b91505092915050565b600060208284031215610c7b57610c7a610acd565b5b600082013567ffffffffffffffff811115610c9957610c98610ad2565b5b610ca584828501610c37565b91505092915050565b7f4e487b7100000000000000000000000000000000000000000000000000000000600052602260045260246000fd5b60006002820490506001821680610cf557607f821691505b602082108103610d0857610d07610cae565b5b50919050565b7f4e487b7100000000000000000000000000000000000000000000000000000000600052601160045260246000fd5b6000610d488261087b565b9150610d538361087b565b9250828201905080821115610d6b57610d6a610d0e565b5b92915050565b600082825260208201905092915050565b7f576169742031356d000000000000000000000000000000000000000000000000600082015250565b6000610db8600883610d71565b9150610dc382610d82565b602082019050919050565b60006020820190508181036000830152610de781610dab565b9050919050565b60008190508160005260206000209050919050565b60006020601f8301049050919050565b600082821b905092915050565b600060088302610e507fffffffffffffffffffffffffffffffffffffffffffffffffffffffffffffffff82610e13565b610e5a8683610e13565b95508019841693508086168417925050509392505050565b6000819050919050565b6000610e97610e92610e8d8461087b565b610e72565b61087b565b9050919050565b6000819050919050565b610eb183610e7c565b610ec5610ebd82610e9e565b848454610e20565b825550505050565b600090565b610eda610ecd565b610ee5818484610ea8565b505050565b5b81811015610f0957610efe600082610ed2565b600181019050610eeb565b5050565b601f821115610f4e57610f1f81610dee565b610f2884610e03565b81016020851015610f37578190505b610f4b610f4385610e03565b830182610eea565b50505b505050565b600082821c905092915050565b6000610f7160001984600802610f53565b1980831691505092915050565b6000610f8a8383610f60565b9150826002028217905092915050565b610fa38261091c565b67ffffffffffffffff811115610fbc57610fbb610b3a565b5b610fc68254610cdd565b610fd1828285610f0d565b600060209050601f8311600181146110045760008415610ff2578287015190505b610ffc8582610f7e565b865550611064565b601f19841661101286610dee565b60005b8281101561103a57848901518255600182019150602085019450602081019050611015565b868310156110575784890151611053601f891682610f60565b8355505b6001600288020188555050505b505050505050565b7f4e487b7100000000000000000000000000000000000000000000000000000000600052601260045260246000fd5b60006110a68261087b565b91506110b18361087b565b9250826110c1576110c061106c565b5b828206905092915050565b7f547279696e6720746f207769746864726177206d6f7265206d6f6e657920746860008201527f616e2074686520636f6e7472616374206861732e000000000000000000000000602082015250565b6000611128603483610d71565b9150611133826110cc565b604082019050919050565b600060208201905081810360008301526111578161111b565b9050919050565b600081905092915050565b50565b600061117960008361115e565b915061118482611169565b600082019050919050565b600061119a8261116c565b9150819050919050565b7f4661696c656420746f207769746864726177206d6f6e65792066726f6d20636f60008201527f6e74726163742e00000000000000000000000000000000000000000000000000602082015250565b6000611200602783610d71565b915061120b826111a4565b604082019050919050565b6000602082019050818103600083015261122f816111f3565b9050919050565b60006112418261091c565b61124b8185610d71565b935061125b818560208601610938565b61126481610962565b840191505092915050565b60006040820190506112846000830185610885565b81810360208301526112968184611236565b90509392505050565b600060208201905081810360008301526112b98184611236565b905092915050565b600060408201905081810360008301526112db8185611236565b90506112ea6020830184610885565b9392505050565b6112fa816108fb565b82525050565b6000604082019050818103600083015261131a8185611236565b905061132960208301846112f1565b939250505056fea2646970667358221220650231f345309f341d3c4b27f1008167308c8e5ed17a56576b6f73719119ae0b64736f6c63430008110033",
  "linkReferences": {},
  "deployedLinkReferences": {}
}